:100000000C9434000C9423010C9423010C942301D0
:100010000C9423010C9423010C9423010C942301D0
:100020000C9423010C9423010C9423010C942301C0
:100030000C9423010C9423010C9423010C942301B0
:100040000C9423010C9423010C9423010C942301A0
:100050000C9423010C9423010C9423010C94230190
:100060000C9423010C94230111241FBECFEFD8E080
:10007000DEBFCDBF0E9440000C940001F894FFCF7A
:100080000E940B0180E895E20E94B00000E010E0C1
:1000900001C08E010E94C6000E94E7000E94F40089
:1000A000EC018017910720F481E40E9415010AC039
:1000B0008638914020F482E40E94150103C083E455
:1000C0000E9415018FEF91EE24E081509040204076
:1000D000E1F700C000000E941C01843439F485B1AE
:1000E000806185B985B18F7D85B9D3CF853451F4D1
:1000F00085B18F7D85B985B18F7E85B985B18860E1
:1001000085B9C7CF863429F685B1806285B985B1B6
:0C0110008F7E85B985B1877F85B9BBCF94
:10011C00A1E21A2EAA1BBB1BFD010DC0AA1FBB1FFF
:10012C00EE1FFF1FA217B307E407F50720F0A21B71
:10013C00B30BE40BF50B661F771F881F991F1A94DE
:10014C0069F760957095809590959B01AC01BD0108
:04015C00CF01089532
:100160009C0140E050E060E472E48FE090E00E9487
:100170008E00215031093093C5002093C40088E1DE
:0C0180008093C10086E08093C2000895C7
:10018C008BB1877F8BB98AE08A95F1F700C08BB170
:10019C0088608BB985E38A95F1F700008BB1877F76
:0401AC008BB908956E
:1001B000A29FB001B39FC001A39F700D811D1124A8
:0E01C000911DB29F700D811D1124911D089597
:1001CE004A9BFECF80E090E005C0019625E02A957F
:0A01DE00F1F700004A99F9CF0895E7
:1001E8009C01AFE9B6E40E94D800929582958F7081
:0801F80089279F7089270895F3
:10020000EC010E9428010E942701CE010E942901D1
:06021000CE010E94250151
:100216008AB188608AB98AB18B7F8AB984B18863CA
:0402260084B90895FA
:0E022A009091C00095FFFCCF8093C600089510
:0E0238008091C0008823E4F78091C6000895ED
:040246000C94000014
:04024A000E943E00D0
:02024E00089511
:0202500008950F
:0202520008950D
:00000001FF
