:020000040000FA
:100000000C9468000C9490000C9490000C94900058
:100010000C9490000C9490000C9490000C94900020
:100020000C9490000C9490000C9490000C94900010
:100030000C9490000C9490000C9490000C94900000
:100040000C94A0030C9490000C9410040C94EA03FC
:100050000C9490000C9490000C9490000C949000E0
:100060000C9490000C9490000A0B0C0D0E0F0000E5
:1000700000002300260029000001020304050000FF
:100080000000240027002A000000000025002800AE
:100090002B00040404040404040402020202020209
:1000A000030303030303010204081020408001023C
:1000B00004081020010204081020000000080002BB
:1000C0000100000304070000000000000000870496
:1000D00011241FBECFEFD8E0DEBFCDBF22E0A0E5E8
:1000E000B1E001C01D92AC31B207E1F711E0A0E030
:1000F000B1E0E8E6F1E102C005900D92A035B1074C
:10010000D9F710E0C8E6D0E004C02197FE010E94B4
:10011000AC08C736D107C9F70E94D7040C94B208BF
:100120000C94000090E0FC01E654FF4F2491FC0188
:10013000EA55FF4F3491FC01EE56FF4FE491EE2358
:10014000C9F0222339F0233001F1A8F4213019F14C
:10015000223029F1F0E0EE0FFF1FE857FF4FA59185
:10016000B4918FB7F894EC91611126C030953E237D
:100170003C938FBF08952730A9F02830C9F0243070
:1001800049F7809180008F7D03C0809180008F7738
:1001900080938000DFCF84B58F7784BDDBCF84B5BB
:1001A0008F7DFBCF8091B0008F778093B000D2CF4E
:1001B0008091B0008F7DF9CF3E2BDACF682F8091F0
:1001C00001020E94920080911802909119028230DF
:1001D000910538F0880F991F880F991F059701978F
:1001E000F1F7089581E00C94DE00682F8091000201
:1001F0009091010289130C9492000895CF93DF939C
:1002000090E0FC01EA55FF4F24918E569F4FFC0170
:1002100084918823D1F090E0880F991FFC01E25867
:10022000FF4FA591B491FC01E857FF4FC591D491C0
:1002300061110EC09FB7F8948C91E22FE0958E2348
:100240008C932881E223E8839FBFDF91CF910895AB
:100250008FB7F894EC91E22BEC938FBFF6CF3FB7BA
:10026000F89480915C0190915D01A0915E01B09144
:100270005F0126B5A89B05C02F3F19F00196A11D6F
:10028000B11D3FBFBA2FA92F982F8827BC01CD01E0
:10029000620F711D811D911D42E0660F771F881F3F
:1002A000991F4A95D1F708958F929F92AF92BF926E
:1002B000CF92DF92EF92FF924B015C010E942F01DF
:1002C0006B017C010E942F016C197D098E099F0929
:1002D000683E734081059105A8F321E0821A9108D8
:1002E000A108B10888EEC80E83E0D81EE11CF11CFD
:1002F00081149104A104B10429F7FF90EF90DF90DD
:10030000CF90BF90AF909F908F900895AF92BF9283
:10031000CF92DF92EF92FF920F931F93CF93DF93D1
:100320006C017B018B01040F151FEB015E01AE1800
:10033000BF08C017D10759F06991D601ED91FC9122
:100340000190F081E02DC6010995892B79F7C5014F
:10035000DF91CF911F910F91FF90EF90DF90CF90A1
:10036000BF90AF900895FC01538D448D252F30E050
:10037000842F90E0821B930B541710F0CF960895B2
:1003800001970895FC01918D828D981761F0A28DDF
:10039000AE0FBF2FB11D5D968C91928D9F5F9F73A5
:1003A000928F90E008958FEF9FEF0895FC01918D5B
:1003B000828D981731F0828DE80FF11D858D90E0C8
:1003C00008958FEF9FEF0895FC01918D228D892F65
:1003D00090E0805C9F4F821B91098F73992708954D
:1003E00080E691E00E94E40121E0892B09F420E0FD
:1003F000822F089580E090E0892B29F00E94F0017F
:1004000081110C9400000895FC01A48DA80FB92F50
:10041000B11DA35ABF4F2C91848D90E001968F732C
:100420009927848FA689B7892C93A089B1898C914B
:10043000837080648C93938D848D981306C002889A
:10044000F389E02D80818F7D80830895EF92FF9264
:100450000F931F93CF93DF93EC0181E0888F9B8DE7
:100460008C8D98131AC0E889F989808185FF15C0A1
:100470009FB7F894EE89FF896083E889F9898081C4
:100480008370806480839FBF81E090E0DF91CF9193
:100490001F910F91FF90EF900895F62E0B8D10E0B5
:1004A0000F5F1F4F0F731127E02E8C8D8E110CC024
:1004B0000FB607FCFACFE889F989808185FFF5CF6F
:1004C000CE010E940402F1CFEB8DEC0FFD2FF11D48
:1004D000E35AFF4FF0829FB7F8940B8FEA89FB89AC
:1004E00080818062CFCFCF93DF93EC01888D88230A
:1004F000B9F0AA89BB89E889F9898C9185FD03C087
:10050000808186FD0DC00FB607FCF7CF8C9185FF6B
:10051000F2CF808185FFEDCFCE010E940402E9CFAA
:10052000DF91CF9108958EBD00000DB407FEFDCF81
:100530008EB508950F931F9300910202109103024C
:10054000209104023091050240E052E16AE770E038
:1005500080E0041715072607370740F4769567955E
:10056000579547958F5F8630A1F787E0982F906A5F
:100570009695809581709CBD8DBD80E01F910F91F7
:100580000C94DE00CF93C82F0E949A028C2F8062B9
:100590000E94930280930602CF910C94F200CF93B5
:1005A000C82F0E949A028C2F0E9493028093060209
:1005B0008FEF0E949302C82F0E94F2008C2FCF91E0
:1005C0000895CF93DF93EC0187E10E94CF0280FD75
:1005D0000FC088818F3F51F08FEF0E94C20280913F
:1005E000060290E0959587958770888381E001C029
:1005F00080E0DF91CF910895FF920F931F93CF93E7
:10060000DF93C82FF62E072F142F0E949A028C2FEB
:1006100080620E94930280930602CF2DD02F11504A
:1006200020F089910E949302FACFDF91CF911F9120
:100630000F91FF900C94F2000E949A0280E50E94B4
:1006400093028093060283E70E9493020C94F200C7
:10065000CF93DF93D82FC62F0E949A028D2F8062EE
:100660000E949302809306028C2F0E949302DF91D6
:10067000CF910C94F20060910D0261FD0AC062609E
:1006800060930D0280E00E9428038BE19EE40197B5
:10069000F1F70895FC0101900020E9F73197AF01CF
:1006A000481B590BBC0180E691E00C948601CF9267
:1006B000DF92EF92FF920F931F93CF93DF93CDB70B
:1006C000DEB7A1970FB6F894DEBF0FBECDBF9C0179
:1006D00050E040E019A28E010F5D1F4F8AE0C82E46
:1006E000D12CE12CF12CCA01B901A70196010E947D
:1006F0007608605DF80162938F012115310541058F
:10070000510589F73097C9F0CF010E944A038C0147
:100710008CE191E00E944A03800F911FA1960FB6D1
:10072000F894DEBF0FBECDBFDF91CF911F910F9127
:10073000FF90EF90DF90CF90089510E000E0E8CFB9
:100740001F920F920FB60F9211242F933F938F9306
:100750009F93AF93BF938091580190915901A091BD
:100760005A01B0915B013091570123E0230F2D37DF
:1007700058F50196A11DB11D209357018093580192
:1007800090935901A0935A01B0935B0180915C0151
:1007900090915D01A0915E01B0915F010196A11D54
:1007A000B11D80935C0190935D01A0935E01B093B5
:1007B0005F01BF91AF919F918F913F912F910F90CA
:1007C0000FBE0F901F90189526E8230F0296A11DCB
:1007D000B11DD2CF1F920F920FB60F9211242F93FB
:1007E0003F934F935F936F937F938F939F93AF93B9
:1007F000BF93EF93FF9380E691E00E940402FF9184
:10080000EF91BF91AF919F918F917F916F915F9188
:100810004F913F912F910F900FBE0F901F90189501
:100820001F920F920FB60F9211242F938F939F93C5
:10083000EF93FF93E0917001F09171018081E0915D
:100840007601F091770182FD1BC090818091790142
:100850008F5F8F7320917A01821741F0E0917901C7
:10086000F0E0E05AFE4F958F80937901FF91EF9170
:100870009F918F912F910F900FBE0F901F90189501
:100880008081F4CFCF92DF92EF92FF920F931F936C
:10089000E82FF92F05C0015011092109310961F133
:1008A000908196239417B9F305C0015011092109CD
:1008B000310911F1908196239413F7CFC12CD12CDB
:1008C000E12CF12C0AC08FEFC81AD80AE80AF80AFE
:1008D0000C151D052E053F0579F0808186238417B0
:1008E00091F36C2D7D2D8E2D9F2D1F910F91FF90DB
:1008F000EF90DF90CF90089560E070E080E090E0AE
:100900001F910F91FF90EF90DF90CF900895E0E658
:10091000F1E01382128288EE93E0A0E0B0E08483DD
:100920009583A683B7838EE091E09183808385ECE5
:1009300090E09587848784EC90E09787868780ECA9
:1009400090E0918B808B81EC90E0938B828B82EC9A
:1009500090E0958B848B86EC90E0978B868B118E44
:10096000128E138E148EEEEFF1E086E0828387E024
:10097000838380E896E9A8E9B0E084839583A68321
:10098000B78380E28187108A118A85E0838B81E0BA
:10099000848B85E090E0A0E0B0E0828F938FA48FFD
:1009A000B58F8DEF91E09183808312860895CF9368
:1009B000DF931F92CDB7DEB7789484B5826084BD93
:1009C00084B5816084BD85B5826085BD85B5816053
:1009D00085BD80916E00816080936E0010928100D1
:1009E000809181008260809381008091810081608C
:1009F000809381008091800081608093800080914D
:100A0000B10084608093B1008091B00081608093D8
:100A1000B00080917A00846080937A0080917A009F
:100A2000826080937A0080917A00816080937A005E
:100A300080917A00806880937A001092C10061E012
:100A400085E00E94FE0060E084E00E94FE0061E01C
:100A500089E00E94FE0061E082E00E94FE0061E009
:100A600083E00E94FE001FB7F8948091500181112D
:100A700027C0ECE9F0E08491E0EBF0E09491E82FFE
:100A8000F0E0EE0FFF1FE258FF4FA591B491EC91FB
:100A9000E92321F461E08AE00E94920061E08AE0AB
:100AA0000E94FE008CB580618CBD8CB580648CBDCD
:100AB00061E08DE00E94FE0061E08BE00E94FE009C
:100AC000809150018F5F809350011FBF8091000281
:100AD0008F3F09F489C0909101029F3F09F484C0BF
:100AE000891741F061E00E94FE0061E080910102FF
:100AF0000E94FE0080E00E94F50081E00E94DE007E
:100B000065E070E080E090E00E9454016FE584E0D1
:100B10000E94280386E00E94CF0245E550E060E095
:100B200070E0409314025093150260931602709384
:100B30001702682F677D86E00E94280386E00E94E6
:100B4000CF028DE10E94CF02182F0E941C038DE17D
:100B50000E94CF0291E0181390E090930E02882338
:100B600041F0181302C00E941C0360E08DE10E9456
:100B700028031092100260E08CE10E94280310927A
:100B800012026FE381E00E94280363E082E00E948A
:100B9000280380E28093070211E160910702812F10
:100BA0000E9428031F5F1731C1F763E083E00E94B2
:100BB000280385E0809311026CE40E94280360E71B
:100BC00087E00E94280382EE0E94C20281EE0E940A
:100BD000C2026CE080E00E94280380E00E94CF0205
:100BE00080930D020E943B034091110265E071E089
:100BF0008AE00E94FC024091110265E071E080E110
:100C00000E94FC02E9E6F0E084914091110260E06C
:100C100071E00E94FC0282E00E94CF02E9E7F0E06E
:100C2000E49161E070E001C0660FEA95EAF7682B95
:100C300082E00E94280386E00E94CF02887F682F0E
:100C4000616086E00E942803E0917001F0917101DB
:100C500082E08083E0916C01F0916D011082E0915F
:100C60006E01F0916F018FEC808310927801E0911A
:100C70007401F091750186E08083E0917201F0913A
:100C80007301808180618083E0917201F091730132
:100C9000808188608083E0917201F091730180818E
:100CA00080688083E0917201F091730180818F7D73
:100CB0008083EE24E394F12C73E0272E312CE3E2C1
:100CC000CE2ED12CFAE3AF2EB12CA0E08A2EA0E0DC
:100CD0009A2E62E370E080E090E00E94540180E090
:100CE0000E94F500809114029091150282309105C6
:100CF00038F0880F991F880F991F05970197F1F712
:100D000080911002882319F081EE0E94C202609146
:100D10000D026E7F60930D0280E00E94280382E046
:100D20000E94CF02E8E7F0E09491B70101C0660F9E
:100D30009A95EAF7682B82E00E94280360E085E03C
:100D40000E949200C1010197F1F761E085E00E94E5
:100D50009200C6010197F1F760E085E00E949200E1
:100D6000EAEAF0E06491E6E9F0E08491E82FF0E04F
:100D7000EE0FFF1FE259FF4F8591949100E117E2BA
:100D800020E030E0462F0E94420461157105810584
:100D9000910529F06F5F7F4F8F4F9F4F9F70CB0161
:100DA000B5010E946208CB01709356016093550112
:100DB0000E94570380911202712C22E0622E811151
:100DC00009C080910702682E833010F032E0632E54
:100DD000782E76180E949A0280EA0E9493028093ED
:100DE000060205E511E06A94FFEF6F1631F0F80195
:100DF00081918F010E949302F6CF7A94FFEF7F16C4
:100E000021F080E00E949302F8CF0E94F20081E07E
:100E10000E94F5008FB7F894409058015090590106
:100E200060905A0170905B018FBF8FEF0E94C202E9
:100E300080910602807309F093C02FB7F8948091D7
:100E4000580190915901A0915A01B0915B012FBFB7
:100E500084199509A609B70980369105A105B10540
:100E600020F381E0809313028FE191E00E944A0316
:100E70008CE191E00E944A0362E370E080E090E040
:100E80000E9454010E943B0360910D0261606093D7
:100E90000D0280E00E94280360E787E00E9428039B
:100EA00081E00E94F50080910F02882309F467C059
:100EB0004091110268E072E08AE00E94FC028FB764
:100EC000F894409058015090590160905A017090E8
:100ED0005B018FBF1FEF1983CE0101960E94E102D3
:100EE000811114C02FB7F894809158019091590145
:100EF000A0915A01B0915B012FBF84199509A609F1
:100F0000B709893E9340A105B10528F38FEF898386
:100F1000CE0101960E94E102882309F491C08091DC
:100F20001202811140C080910702682E833010F0B8
:100F300092E0692E782E76180E949A0281E60E942D
:100F400093028093060203E511E06A942FEF621684
:100F500071F18FEF0E949302F80181938F01F5CF19
:100F600080E00E94F50060E787E00E9428038091FE
:100F7000060284FF81CF81EE0E94C20275CF82E01B
:100F80000E94CF02E8E7F0E09491970101C0220FA0
:100F90009A95EAF72095622F682382E00E94280341
:100FA00010920F028CCF712C82E0682EC5CF7A94FC
:100FB000FFEF7F1621F08FEF0E949302F8CF0E947F
:100FC000F20060E487E00E94280384E391E00E943D
:100FD0004A0380915301909154010E94570320913C
:100FE000510130915201A9014150510980915301A1
:100FF000909154018417950798F58431910580F5F7
:1010000060E089E00E94920061E082E00E9492002C
:1010100060E083E00E94920068EE73E080E090E080
:101020000E94540180915301909154019093520178
:101030008093510168EC70E080E090E00E945401E0
:101040008CE191E00E944A038114910409F441CE9D
:101050000E94F001882309F43CCE0E94000039CEA2
:101060002F5F3F4F28173907F0F461E08431910575
:1010700030F084179507D0F0449779F060E089E06C
:101080000E94920060E082E00E94920061E083E0B2
:101090000E949200C7CF459788F761E089E00E94DF
:1010A000920060E00AC084179507A8F74597A8F357
:1010B00061E089E00E94920061E082E00E9492007B
:1010C00060E0E5CF97FB072E16F4009407D077FD7C
:1010D00009D00E94980807FC05D03EF490958195B0
:1010E0009F4F0895709561957F4F0895A1E21A2E44
:1010F000AA1BBB1BFD010DC0AA1FBB1FEE1FFF1FBC
:10110000A217B307E407F50720F0A21BB30BE40B0B
:10111000F50B661F771F881F991F1A9469F7609552
:101120007095809590959B01AC01BD01CF0108950C
:10113000AA1BBB1B51E107C0AA1FBB1FA617B707FD
:1011400010F0A61BB70B881F991F5A95A9F7809519
:101150009095BC01CD010895EE0FFF1F0590F4910D
:10116000E02D0994F894FFCF3030303031303030FA
:1011700030320000000026028601B3017302E40150
:10118000C201D6010D0A005472616E736D697373EA
:10119000696F6E206661696C6564210063757272A7
:1011A000656E745F64697374616E636520726563F4
:0811B00065697665643A2000D0
:107E0000112484B714BE81FFF0D085E080938100F7
:107E100082E08093C00088E18093C10086E0809377
:107E2000C20080E18093C4008EE0C9D0259A86E02C
:107E300020E33CEF91E0309385002093840096BBD3
:107E4000B09BFECF1D9AA8958150A9F7CC24DD24C4
:107E500088248394B5E0AB2EA1E19A2EF3E0BF2EE7
:107E6000A2D0813461F49FD0082FAFD0023811F036
:107E7000013811F484E001C083E08DD089C08234E0
:107E800011F484E103C0853419F485E0A6D080C0E4
:107E9000853579F488D0E82EFF2485D0082F10E0AE
:107EA000102F00270E291F29000F111F8ED06801E7
:107EB0006FC0863521F484E090D080E0DECF843638
:107EC00009F040C070D06FD0082F6DD080E0C81688
:107ED00080E7D80618F4F601B7BEE895C0E0D1E017
:107EE00062D089930C17E1F7F0E0CF16F0E7DF06D8
:107EF00018F0F601B7BEE89568D007B600FCFDCFD4
:107F0000A601A0E0B1E02C9130E011968C91119780
:107F100090E0982F8827822B932B1296FA010C0160
:107F200087BEE89511244E5F5F4FF1E0A038BF0790
:107F300051F7F601A7BEE89507B600FCFDCF97BE46
:107F4000E89526C08437B1F42ED02DD0F82E2BD052
:107F50003CD0F601EF2C8F010F5F1F4F84911BD097
:107F6000EA94F801C1F70894C11CD11CFA94CF0C13
:107F7000D11C0EC0853739F428D08EE10CD085E9AC
:107F80000AD08FE07ACF813511F488E018D01DD067
:107F900080E101D065CF982F8091C00085FFFCCF94
:107FA0009093C60008958091C00087FFFCCF809118
:107FB000C00084FD01C0A8958091C6000895E0E648
:107FC000F0E098E1908380830895EDDF803219F02E
:107FD00088E0F5DFFFCF84E1DECF1F93182FE3DFCA
:107FE0001150E9F7F2DF1F91089580E0E8DFEE27F6
:047FF000FF270994CA
:027FFE00040479
:00000001FF
